:100000000A128A11FC2F00308A000408840A820731
:1000100000347334653463346F346E3464342034A4
:1000200066346C346F346F34723400346734723435
:100030006F3475346E346434203466346C346F3409
:100040006F34723400347434683469347234643414
:10005000203466346C346F346F3472340034663458
:100060006934723473347434203466346C346F34CD
:060070006F34723400340D
:100D62000130F0020030031CF103F102700A031D8E
:100D7200BE2E710A031DBE2EBF2EB12E0800F30037
:100D82007318C42EC82E831203130914CB2E831298
:100D920003130910720888000A128A11D3260A1254
:100DA2008A110800831203138914E830F00003301B
:100DB200F1000A128A11B1260A128A118312031350
:100DC2008910E830F0000330F1000A128A11B126CE
:100DD2000A128A110800F3007318F02EF42E8312FF
:100DE20003130914F72E831203130910F401F501FA
:100DF200102F7408720784000A128A1103200A1243
:100E02008A118312031388000A128A11D3260A1246
:100E12008A110130F4070318F50A0030F507740847
:100E2200720784000A128A1103200A128A11003AF8
:100E3200031D1C2F1D2FFA2E080083120313850198
:100E420086018701880189010F308316031385000B
:100E52000F308600870188018901831603178801F4
:100E620089013830F20000300A128A11C0260A12B3
:100E72008A110E30F20000300A128A11C0260A12BC
:100E82008A1183120313051C472F482F4A2FF7019B
:100E9200F801851C4D2F4E2F522F0130F7000030E4
:100EA200F800051D552F562F5A2F0230F70000303B
:100EB200F800851D5D2F5E2F622F0330F700003092
:100EC200F8000618652F662F782FF901FA01803095
:100ED200F20000300A128A11C0260A128A110E305C
:100EE200F20001300A128A11EC260A128A118312C8
:100EF200031386187D2F7E2F922F0130F9000030C8
:100F0200FA008030F20000300A128A11C0260A125A
:100F12008A112730F20001300A128A11EC260A12D5
:100F22008A11831203130619972F982FAC2F0230C0
:100F3200F9000030FA008030F20000300A128A1103
:100F4200C0260A128A110130F20001300A128A11F7
:100F5200EC260A128A11831203138619B12FB22FBB
:100F6200C62F0330F9000030FA008030F200003062
:100F72000A128A11C0260A128A111B30F2000130AD
:100F82000A128A11EC260A128A117A08803AF600AD
:100F92007808803A7602031DD02F77087902031869
:100FA200D32FD42FD82F8312031387100714780856
:100FB200803AF6007A08803A7602031DE22F790819
:100FC20077020318E52FE62FEA2F83120313871403
:100FD20007107A087806031DF02F79087706031D9B
:100FE200F32FF42F422F8312031387100710422F7F
:0E0FF2000A128A11002883010A128A111E2F8A
:08400000FF3FFF3FFF3FFF3FC0
:04400E00E42CFF3F60
:00000001FF
